:0504E6001204E080FE9D
:030000000204BE39
:1004BE00787FE4F6D8FD9000007F007E20E4F0A364
:0A04CE00DFFCDEFA75810B0204E684
:0604E00043BA80D2AF22F6
:0804D80001020408102040801D
:1001A200ED6058EF540F9004D893FEEF54F024F012
:1001B200602424F0602524F0602624F0602724F0D7
:1001C200602824F0602924F0602A2470600302026F
:1001D2005290FE10802190FE11801C90FE1280171A
:1001E20090FE13801290FE14800D90FE15800890F0
:1001F200FE16800390FE17E04EF022EF540F90049B
:10020200D893F4FEEF54F024F0602124F06022240D
:10021200F0602324F0602424F0602524F06026247A
:10022200F060272470702990FE10802190FE1180CA
:100232001C90FE12801790FE13801290FE14800D07
:1002420090FE15800890FE16800390FE17E05EF087
:010252002289
:10000300EF540F9004D893FEEF54F024F0605E2475
:10001300F0700302009D24F070030200CA24F07004
:10002300030200F724F0700302012424F07003029A
:10003300014E24F07003020178247060030201A1D1
:10004300ED14601414601914601B2403600302018F
:10005300A1EEF45293529422EE4293EEF452942280
:10006300EE42938004EEF45293EE429422ED146038
:100073001414601914601B240360030201A1EEF43D
:100083005291529222EE4291EEF4529222EE42911A
:100093008004EEF45291EE429222ED146014146047
:1000A3001914601B240360030201A1EEF45295525C
:1000B3009622EE4295EEF4529622EE42958004EE9D
:1000C300F45295EE429622ED1460141460191460F4
:1000D3001B240360030201A1EEF452B152B222EEDB
:1000E30042B1EEF452B222EE42B18004EEF452B1C8
:1000F300EE42B222ED14601414601914601B240341
:1001030060030201A1EEF452B352B422EE42B3EE05
:10011300F452B422EE42B38004EEF452B3EE42B48E
:1001230022ED1460111460161460182403706FEE2E
:10013300F452C952CA22EE42C9EEF452CA22EE4226
:10014300C98004EEF452C9EE42CA22ED14601114C0
:10015300601614601824037045EEF452CB52CC227F
:10016300EE42CBEEF452CC22EE42CB8004EEF452BC
:10017300CBEE42CC22ED14601114601614601824E7
:1001830003701BEEF452E152E222EE42E1EEF4522E
:0E019300E222EE42E18004EEF452E1EE42E29E
:0101A100223B
:10025300EF540F9004D893FEED6043EF54F024F075
:10026300602024F0602024F0602024F0602024F03B
:10027300602024F0602024F060202470706AEE4235
:100283008022EE429022EE42A022EE42B022EE42C3
:10029300C022EE42C822EE42E822EE42F822EF5498
:1002A300F024F0602124F0602224F0602324F06025
:1002B3002424F0602524F0602624F0602724707045
:1002C30027EEF4528022EEF4529022EEF452A02252
:1002D300EEF452B022EEF452C022EEF452C822EEF3
:0802E300F452E822EEF452F897
:0102EB0022F0
:10038400EF540F9004D893FDEF54F024F060202430
:10039400F0602024F0602024F0602024F060202409
:1003A400F0602024F0602024707020AE80801FAEA6
:1003B40090801BAEA08017AEB08013AEC0800FAE8D
:1003C400C8800BAEE88007AEF880037F0122EE5DA3
:0703D40060037F01227F009E
:0103DB0022FF
:10042E00EF540F9004D893FEEF54F024F060202484
:10043E00F0602024F0602024F0602024F06020245E
:10044E00F0602024F060202470701FEE628022EE97
:10045E00629022EE62A022EE62B022EE62C022EE26
:0A046E0062C822EE62E822EE62F896
:010478002261
:10047900EFB40800503E900486F828287302049EC1
:100489000204A20204A60204AA0204AE0204B202F1
:1004990004B60204BAED628022ED629022ED62A0F8
:1004A90022ED62B022ED62C022ED62C822ED62E85F
:0504B90022ED62F822B3
:1002EC00EB6048EFB4080040030203839002FFF870
:1002FC0028287302031702031B02031F02032302A5
:10030C00032702032B02032F020333ED428022ED5D
:10031C00429022ED42A022ED42B022ED42C022EDED
:10032C0042C822ED42E822ED42F822EFB408005018
:10033C0046900344F828287302035C02036102030D
:10034C006602036B02037002037502037A02037FD9
:10035C00EDF4528022EDF4529022EDF452A022EDF5
:10036C00F452B022EDF452C022EDF452C822EDF456
:08037C0052E822EDF452F822D0
:1003DC00EFB40800503F9003E9F828287302040199
:1003EC0002040502040902040D02041102041502A0
:1003FC00041902041DAE80801FAE90801BAEA0803D
:10040C0017AEB08013AEC0800FAEC8800BAEE880C4
:10041C0007AEF880037F0122EE5D60037F01227F2F
:01042C0000CF
:01042D0022AC
:00000001FF
